{
  "contractName": "ClaimableToken",
  "abi": [
    {
      "constant": true,
      "inputs": [],
      "name": "name",
      "outputs": [
        {
          "name": "",
          "type": "string"
        }
      ],
      "payable": false,
      "stateMutability": "view",
      "type": "function"
    },
    {
      "constant": true,
      "inputs": [
        {
          "name": "_tokenId",
          "type": "uint256"
        }
      ],
      "name": "getApproved",
      "outputs": [
        {
          "name": "",
          "type": "address"
        }
      ],
      "payable": false,
      "stateMutability": "view",
      "type": "function"
    },
    {
      "constant": false,
      "inputs": [
        {
          "name": "_to",
          "type": "address"
        },
        {
          "name": "_tokenId",
          "type": "uint256"
        }
      ],
      "name": "approve",
      "outputs": [],
      "payable": false,
      "stateMutability": "nonpayable",
      "type": "function"
    },
    {
      "constant": true,
      "inputs": [
        {
          "name": "addr",
          "type": "address"
        },
        {
          "name": "roleName",
          "type": "string"
        }
      ],
      "name": "checkRole",
      "outputs": [],
      "payable": false,
      "stateMutability": "view",
      "type": "function"
    },
    {
      "constant": false,
      "inputs": [
        {
          "name": "_owner",
          "type": "address"
        }
      ],
      "name": "removeOwner",
      "outputs": [],
      "payable": false,
      "stateMutability": "nonpayable",
      "type": "function"
    },
    {
      "constant": true,
      "inputs": [],
      "name": "totalSupply",
      "outputs": [
        {
          "name": "",
          "type": "uint256"
        }
      ],
      "payable": false,
      "stateMutability": "view",
      "type": "function"
    },
    {
      "constant": true,
      "inputs": [
        {
          "name": "addr",
          "type": "address"
        },
        {
          "name": "roleName",
          "type": "string"
        }
      ],
      "name": "hasRole",
      "outputs": [
        {
          "name": "",
          "type": "bool"
        }
      ],
      "payable": false,
      "stateMutability": "view",
      "type": "function"
    },
    {
      "constant": false,
      "inputs": [
        {
          "name": "_from",
          "type": "address"
        },
        {
          "name": "_to",
          "type": "address"
        },
        {
          "name": "_tokenId",
          "type": "uint256"
        }
      ],
      "name": "transferFrom",
      "outputs": [],
      "payable": false,
      "stateMutability": "nonpayable",
      "type": "function"
    },
    {
      "constant": true,
      "inputs": [
        {
          "name": "_owner",
          "type": "address"
        },
        {
          "name": "_index",
          "type": "uint256"
        }
      ],
      "name": "tokenOfOwnerByIndex",
      "outputs": [
        {
          "name": "",
          "type": "uint256"
        }
      ],
      "payable": false,
      "stateMutability": "view",
      "type": "function"
    },
    {
      "constant": false,
      "inputs": [
        {
          "name": "minter",
          "type": "address"
        }
      ],
      "name": "removeMinter",
      "outputs": [],
      "payable": false,
      "stateMutability": "nonpayable",
      "type": "function"
    },
    {
      "constant": false,
      "inputs": [
        {
          "name": "_from",
          "type": "address"
        },
        {
          "name": "_to",
          "type": "address"
        },
        {
          "name": "_tokenId",
          "type": "uint256"
        }
      ],
      "name": "safeTransferFrom",
      "outputs": [],
      "payable": false,
      "stateMutability": "nonpayable",
      "type": "function"
    },
    {
      "constant": true,
      "inputs": [
        {
          "name": "_tokenId",
          "type": "uint256"
        }
      ],
      "name": "exists",
      "outputs": [
        {
          "name": "",
          "type": "bool"
        }
      ],
      "payable": false,
      "stateMutability": "view",
      "type": "function"
    },
    {
      "constant": true,
      "inputs": [
        {
          "name": "_index",
          "type": "uint256"
        }
      ],
      "name": "tokenByIndex",
      "outputs": [
        {
          "name": "",
          "type": "uint256"
        }
      ],
      "payable": false,
      "stateMutability": "view",
      "type": "function"
    },
    {
      "constant": true,
      "inputs": [
        {
          "name": "_tokenId",
          "type": "uint256"
        }
      ],
      "name": "ownerOf",
      "outputs": [
        {
          "name": "",
          "type": "address"
        }
      ],
      "payable": false,
      "stateMutability": "view",
      "type": "function"
    },
    {
      "constant": false,
      "inputs": [
        {
          "name": "_owner",
          "type": "address"
        }
      ],
      "name": "addOwner",
      "outputs": [],
      "payable": false,
      "stateMutability": "nonpayable",
      "type": "function"
    },
    {
      "constant": true,
      "inputs": [
        {
          "name": "_owner",
          "type": "address"
        }
      ],
      "name": "balanceOf",
      "outputs": [
        {
          "name": "",
          "type": "uint256"
        }
      ],
      "payable": false,
      "stateMutability": "view",
      "type": "function"
    },
    {
      "constant": true,
      "inputs": [],
      "name": "ROLE_OWNER",
      "outputs": [
        {
          "name": "",
          "type": "string"
        }
      ],
      "payable": false,
      "stateMutability": "view",
      "type": "function"
    },
    {
      "constant": true,
      "inputs": [],
      "name": "ROLE_MINTER",
      "outputs": [
        {
          "name": "",
          "type": "string"
        }
      ],
      "payable": false,
      "stateMutability": "view",
      "type": "function"
    },
    {
      "constant": true,
      "inputs": [],
      "name": "symbol",
      "outputs": [
        {
          "name": "",
          "type": "string"
        }
      ],
      "payable": false,
      "stateMutability": "view",
      "type": "function"
    },
    {
      "constant": false,
      "inputs": [
        {
          "name": "minter",
          "type": "address"
        }
      ],
      "name": "addMinter",
      "outputs": [],
      "payable": false,
      "stateMutability": "nonpayable",
      "type": "function"
    },
    {
      "constant": false,
      "inputs": [
        {
          "name": "_to",
          "type": "address"
        },
        {
          "name": "_approved",
          "type": "bool"
        }
      ],
      "name": "setApprovalForAll",
      "outputs": [],
      "payable": false,
      "stateMutability": "nonpayable",
      "type": "function"
    },
    {
      "constant": false,
      "inputs": [
        {
          "name": "_from",
          "type": "address"
        },
        {
          "name": "_to",
          "type": "address"
        },
        {
          "name": "_tokenId",
          "type": "uint256"
        },
        {
          "name": "_data",
          "type": "bytes"
        }
      ],
      "name": "safeTransferFrom",
      "outputs": [],
      "payable": false,
      "stateMutability": "nonpayable",
      "type": "function"
    },
    {
      "constant": true,
      "inputs": [
        {
          "name": "_tokenId",
          "type": "uint256"
        }
      ],
      "name": "tokenURI",
      "outputs": [
        {
          "name": "",
          "type": "string"
        }
      ],
      "payable": false,
      "stateMutability": "view",
      "type": "function"
    },
    {
      "constant": false,
      "inputs": [
        {
          "name": "_to",
          "type": "address"
        },
        {
          "name": "_tokenURI",
          "type": "string"
        }
      ],
      "name": "mint",
      "outputs": [
        {
          "name": "",
          "type": "uint256"
        }
      ],
      "payable": false,
      "stateMutability": "nonpayable",
      "type": "function"
    },
    {
      "constant": true,
      "inputs": [
        {
          "name": "_owner",
          "type": "address"
        },
        {
          "name": "_operator",
          "type": "address"
        }
      ],
      "name": "isApprovedForAll",
      "outputs": [
        {
          "name": "",
          "type": "bool"
        }
      ],
      "payable": false,
      "stateMutability": "view",
      "type": "function"
    },
    {
      "inputs": [
        {
          "name": "_name",
          "type": "string"
        },
        {
          "name": "_symbol",
          "type": "string"
        },
        {
          "name": "_tokenURI",
          "type": "string"
        }
      ],
      "payable": false,
      "stateMutability": "nonpayable",
      "type": "constructor"
    },
    {
      "anonymous": false,
      "inputs": [
        {
          "indexed": true,
          "name": "_from",
          "type": "address"
        },
        {
          "indexed": true,
          "name": "_to",
          "type": "address"
        },
        {
          "indexed": false,
          "name": "_tokenId",
          "type": "uint256"
        }
      ],
      "name": "Transfer",
      "type": "event"
    },
    {
      "anonymous": false,
      "inputs": [
        {
          "indexed": true,
          "name": "_owner",
          "type": "address"
        },
        {
          "indexed": true,
          "name": "_approved",
          "type": "address"
        },
        {
          "indexed": false,
          "name": "_tokenId",
          "type": "uint256"
        }
      ],
      "name": "Approval",
      "type": "event"
    },
    {
      "anonymous": false,
      "inputs": [
        {
          "indexed": true,
          "name": "_owner",
          "type": "address"
        },
        {
          "indexed": true,
          "name": "_operator",
          "type": "address"
        },
        {
          "indexed": false,
          "name": "_approved",
          "type": "bool"
        }
      ],
      "name": "ApprovalForAll",
      "type": "event"
    },
    {
      "anonymous": false,
      "inputs": [
        {
          "indexed": false,
          "name": "addr",
          "type": "address"
        },
        {
          "indexed": false,
          "name": "roleName",
          "type": "string"
        }
      ],
      "name": "RoleAdded",
      "type": "event"
    },
    {
      "anonymous": false,
      "inputs": [
        {
          "indexed": false,
          "name": "addr",
          "type": "address"
        },
        {
          "indexed": false,
          "name": "roleName",
          "type": "string"
        }
      ],
      "name": "RoleRemoved",
      "type": "event"
    }
  ],
  "bytecode": "0x600080805560a0604081905260808290526200001f91600d919062000264565b503480156200002d57600080fd5b5060405162001c1a38038062001c1a833981016040818152825160208085015183860151848601909452600585527f6f776e6572000000000000000000000000000000000000000000000000000000918501919091529084019390810192910190819084908490620000aa90339064010000000062000109810204565b8151620000bf90600690602085019062000264565b508051620000d590600790602084019062000264565b50505060008151111515620000e957600080fd5b8051620000fe90600d90602084019062000264565b505050505062000309565b62000185826001836040518082805190602001908083835b60208310620001425780518252601f19909201916020918201910162000121565b51815160209384036101000a60001901801990921691161790529201948552506040519384900301909220929150506401000000006200023f8102620017631704565b7fbfec83d64eaa953f2708271a023ab9ee82057f8f3578d548c1a4ba0b5b70048982826040518083600160a060020a0316600160a060020a0316815260200180602001828103825283818151815260200191508051906020019080838360005b83811015620001ff578181015183820152602001620001e5565b50505050905090810190601f1680156200022d5780820380516001836020036101000a031916815260200191505b50935050505060405180910390a15050565b600160a060020a0316600090815260209190915260409020805460ff19166001179055565b828054600181600116156101000203166002900490600052602060002090601f016020900481019282601f10620002a757805160ff1916838001178555620002d7565b82800160010185558215620002d7579182015b82811115620002d7578251825591602001919060010190620002ba565b50620002e5929150620002e9565b5090565b6200030691905b80821115620002e55760008155600101620002f0565b90565b61190180620003196000396000f3006080604052600436106101485763ffffffff7c010000000000000000000000000000000000000000000000000000000060003504166306fdde03811461014d578063081812fc146101d7578063095ea7b31461020b5780630988ca8c14610231578063173825d91461029857806318160ddd146102b9578063217fe6c6146102e057806323b872dd1461035b5780632f745c59146103855780633092afd5146103a957806342842e0e146103ca5780634f558e79146103f45780634f6ccce71461040c5780636352211e146104245780637065cb481461043c57806370a082311461045d5780638ad682af1461047e57806392afc33a1461049357806395d89b41146104a8578063983b2d56146104bd578063a22cb465146104de578063b88d4fde14610504578063c87b56dd14610573578063d0def5211461058b578063e985e9c5146105f2575b600080fd5b34801561015957600080fd5b50610162610619565b6040805160208082528351818301528351919283929083019185019080838360005b8381101561019c578181015183820152602001610184565b50505050905090810190601f1680156101c95780820380516001836020036101000a031916815260200191505b509250505060405180910390f35b3480156101e357600080fd5b506101ef6004356106b0565b60408051600160a060020a039092168252519081900360200190f35b34801561021757600080fd5b5061022f600160a060020a03600435166024356106ce565b005b34801561023d57600080fd5b5060408051602060046024803582810135601f810185900485028601850190965285855261022f958335600160a060020a03169536956044949193909101919081908401838280828437509497506107c99650505050505050565b3480156102a457600080fd5b5061022f600160a060020a0360043516610837565b3480156102c557600080fd5b506102ce61088e565b60408051918252519081900360200190f35b3480156102ec57600080fd5b5060408051602060046024803582810135601f8101859004850286018501909652858552610347958335600160a060020a03169536956044949193909101919081908401838280828437509497506108949650505050505050565b604080519115158252519081900360200190f35b34801561036757600080fd5b5061022f600160a060020a0360043581169060243516604435610907565b34801561039157600080fd5b506102ce600160a060020a03600435166024356109b6565b3480156103b557600080fd5b5061022f600160a060020a0360043516610a03565b3480156103d657600080fd5b5061022f600160a060020a0360043581169060243516604435610a5a565b34801561040057600080fd5b50610347600435610a92565b34801561041857600080fd5b506102ce600435610aaf565b34801561043057600080fd5b506101ef600435610ae4565b34801561044857600080fd5b5061022f600160a060020a0360043516610b0e565b34801561046957600080fd5b506102ce600160a060020a0360043516610b62565b34801561048a57600080fd5b50610162610b95565b34801561049f57600080fd5b50610162610bb7565b3480156104b457600080fd5b50610162610bdc565b3480156104c957600080fd5b5061022f600160a060020a0360043516610c3d565b3480156104ea57600080fd5b5061022f600160a060020a03600435166024351515610c94565b34801561051057600080fd5b50604080516020601f60643560048181013592830184900484028501840190955281845261022f94600160a060020a038135811695602480359092169560443595369560849401918190840183828082843750949750610d239650505050505050565b34801561057f57600080fd5b50610162600435610d62565b34801561059757600080fd5b5060408051602060046024803582810135601f81018590048502860185019096528585526102ce958335600160a060020a0316953695604494919390910191908190840183828082843750949750610e2e9650505050505050565b3480156105fe57600080fd5b50610347600160a060020a0360043581169060243516610e7c565b60068054604080516020601f60026000196101006001881615020190951694909404938401819004810282018101909252828152606093909290918301828280156106a55780601f1061067a576101008083540402835291602001916106a5565b820191906000526020600020905b81548152906001019060200180831161068857829003601f168201915b505050505090505b90565b600081815260036020526040902054600160a060020a03165b919050565b60006106d982610ae4565b9050600160a060020a0383811690821614156106f457600080fd5b80600160a060020a031633600160a060020a0316148061071957506107198133610e7c565b151561072457600080fd5b600061072f836106b0565b600160a060020a031614158061074d5750600160a060020a03831615155b156107c457600082815260036020908152604091829020805473ffffffffffffffffffffffffffffffffffffffff1916600160a060020a03878116918217909255835186815293519093918516927f8c5be1e5ebec7d5bd14f71427d1e84f3dd0314c0f7b2291e5b200ac8c7c3b925928290030190a35b505050565b610833826001836040518082805190602001908083835b602083106107ff5780518252601f1990920191602091820191016107e0565b51815160209384036101000a6000190180199092169116179052920194855250604051938490030190922092915050610eaa565b5050565b6108613360408051908101604052806005815260200160d960020a6437bbb732b9028152506107c9565b61088b8160408051908101604052806005815260200160d960020a6437bbb732b902815250610ebf565b50565b600a5490565b6000610900836001846040518082805190602001908083835b602083106108cc5780518252601f1990920191602091820191016108ad565b51815160209384036101000a6000190180199092169116179052920194855250604051938490030190922092915050610fe0565b9392505050565b806109123382610fff565b151561091d57600080fd5b600160a060020a038416151561093257600080fd5b600160a060020a038316151561094757600080fd5b610951848361105e565b61095b848361110b565b6109658383611244565b82600160a060020a031684600160a060020a03167fddf252ad1be2c89b69c2b068fc378daa952ba7f163c4a11628f55a4df523b3ef846040518082815260200191505060405180910390a350505050565b60006109c183610b62565b82106109cc57600080fd5b600160a060020a03831660009081526008602052604090208054839081106109f057fe5b9060005260206000200154905092915050565b610a2d3360408051908101604052806005815260200160d960020a6437bbb732b9028152506107c9565b61088b816040805190810160405280600681526020016000805160206118b6833981519152815250610ebf565b80610a653382610fff565b1515610a7057600080fd5b610a8c8484846020604051908101604052806000815250610d23565b50505050565b600090815260026020526040902054600160a060020a0316151590565b6000610ab961088e565b8210610ac457600080fd5b600a805483908110610ad257fe5b90600052602060002001549050919050565b600081815260026020526040812054600160a060020a0316801515610b0857600080fd5b92915050565b610b383360408051908101604052806005815260200160d960020a6437bbb732b9028152506107c9565b61088b8160408051908101604052806005815260200160d960020a6437bbb732b90281525061128d565b6000600160a060020a0382161515610b7957600080fd5b50600160a060020a031660009081526004602052604090205490565b604080518082019091526005815260d960020a6437bbb732b902602082015281565b60408051808201909152600681526000805160206118b6833981519152602082015281565b60078054604080516020601f60026000196101006001881615020190951694909404938401819004810282018101909252828152606093909290918301828280156106a55780601f1061067a576101008083540402835291602001916106a5565b610c673360408051908101604052806005815260200160d960020a6437bbb732b9028152506107c9565b61088b816040805190810160405280600681526020016000805160206118b683398151915281525061128d565b33600160a060020a031682600160a060020a031614151515610cb557600080fd5b600160a060020a03338116600081815260056020908152604080832094871680845294825291829020805486151560ff199091168117909155825190815291517f17307eab39ab6107e8899845ad3d59bd9653f200f220920489ca2b5937696c319281900390910190a35050565b81610d2e3382610fff565b1515610d3957600080fd5b610d44858585610907565b610d508585858561136e565b1515610d5b57600080fd5b5050505050565b6000818152600c60205260409020546060906002600019610100600184161502019091160415610d9c57610d95826114f7565b90506106c9565b600d805460408051602060026001851615610100026000190190941693909304601f81018490048402820184019092528181529291830182828015610e225780601f10610df757610100808354040283529160200191610e22565b820191906000526020600020905b815481529060010190602001808311610e0557829003601f168201915b50505050509050919050565b600080610e5e336040805190810160405280600681526020016000805160206118b68339815191528152506107c9565b610e66611575565b9050610e728482611586565b61090081846115d5565b600160a060020a03918216600090815260056020908152604080832093909416825291909152205460ff1690565b610eb48282610fe0565b151561083357600080fd5b610f29826001836040518082805190602001908083835b60208310610ef55780518252601f199092019160209182019101610ed6565b51815160209384036101000a6000190180199092169116179052920194855250604051938490030190922092915050611608565b7fd211483f91fc6eff862467f8de606587a30c8fc9981056f051b897a418df803a82826040518083600160a060020a0316600160a060020a0316815260200180602001828103825283818151815260200191508051906020019080838360005b83811015610fa1578181015183820152602001610f89565b50505050905090810190601f168015610fce5780820380516001836020036101000a031916815260200191505b50935050505060405180910390a15050565b600160a060020a03166000908152602091909152604090205460ff1690565b60008061100b83610ae4565b905080600160a060020a031684600160a060020a03161480611046575083600160a060020a031661103b846106b0565b600160a060020a0316145b8061105657506110568185610e7c565b949350505050565b81600160a060020a031661107182610ae4565b600160a060020a03161461108457600080fd5b600081815260036020526040902054600160a060020a031615610833576000818152600360209081526040808320805473ffffffffffffffffffffffffffffffffffffffff1916905580518481529051600160a060020a038616927f8c5be1e5ebec7d5bd14f71427d1e84f3dd0314c0f7b2291e5b200ac8c7c3b925928290030190a35050565b600080600061111a858561162a565b600084815260096020908152604080832054600160a060020a038916845260089092529091205490935061115590600163ffffffff6116c016565b600160a060020a03861660009081526008602052604090208054919350908390811061117d57fe5b90600052602060002001549050806008600087600160a060020a0316600160a060020a03168152602001908152602001600020848154811015156111bd57fe5b6000918252602080832090910192909255600160a060020a03871681526008909152604081208054849081106111ef57fe5b6000918252602080832090910192909255600160a060020a0387168152600890915260409020805490611226906000198301611801565b50600093845260096020526040808520859055908452909220555050565b600061125083836116d2565b50600160a060020a039091166000908152600860209081526040808320805460018101825590845282842081018590559383526009909152902055565b6112f7826001836040518082805190602001908083835b602083106112c35780518252601f1990920191602091820191016112a4565b51815160209384036101000a6000190180199092169116179052920194855250604051938490030190922092915050611763565b7fbfec83d64eaa953f2708271a023ab9ee82057f8f3578d548c1a4ba0b5b70048982826040518083600160a060020a0316600160a060020a03168152602001806020018281038252838181518152602001915080519060200190808383600083811015610fa1578181015183820152602001610f89565b60008061138385600160a060020a0316611788565b151561139257600191506114ee565b84600160a060020a031663f0b9e5ba8786866040518463ffffffff167c01000000000000000000000000000000000000000000000000000000000281526004018084600160a060020a0316600160a060020a0316815260200183815260200180602001828103825283818151815260200191508051906020019080838360005b8381101561142a578181015183820152602001611412565b50505050905090810190601f1680156114575780820380516001836020036101000a031916815260200191505b50945050505050602060405180830381600087803b15801561147857600080fd5b505af115801561148c573d6000803e3d6000fd5b505050506040513d60208110156114a257600080fd5b50517fffffffff0000000000000000000000000000000000000000000000000000000081167ff0b9e5ba0000000000000000000000000000000000000000000000000000000014925090505b50949350505050565b606061150282610a92565b151561150d57600080fd5b6000828152600c602090815260409182902080548351601f600260001961010060018616150201909316929092049182018490048402810184019094528084529091830182828015610e225780601f10610df757610100808354040283529160200191610e22565b6000805460018101909155805b5090565b6115908282611790565b600a80546000838152600b60205260408120829055600182018355919091527fc65a7bb8d6351c1cf70c95a316cc6a92839c986682d98bc35f958f4883f9d2a8015550565b6115de82610a92565b15156115e957600080fd5b6000828152600c6020908152604090912082516107c492840190611825565b600160a060020a0316600090815260209190915260409020805460ff19169055565b81600160a060020a031661163d82610ae4565b600160a060020a03161461165057600080fd5b600160a060020a03821660009081526004602052604090205461167a90600163ffffffff6116c016565b600160a060020a03909216600090815260046020908152604080832094909455918152600290915220805473ffffffffffffffffffffffffffffffffffffffff19169055565b6000828211156116cc57fe5b50900390565b600081815260026020526040902054600160a060020a0316156116f457600080fd5b6000818152600260209081526040808320805473ffffffffffffffffffffffffffffffffffffffff1916600160a060020a038716908117909155835260049091529020546117439060016117f4565b600160a060020a0390921660009081526004602052604090209190915550565b600160a060020a0316600090815260209190915260409020805460ff19166001179055565b6000903b1190565b600160a060020a03821615156117a557600080fd5b6117af8282611244565b604080518281529051600160a060020a038416916000917fddf252ad1be2c89b69c2b068fc378daa952ba7f163c4a11628f55a4df523b3ef9181900360200190a35050565b81810182811015610b0857fe5b8154818355818111156107c4576000838152602090206107c491810190830161189b565b828054600181600116156101000203166002900490600052602060002090601f016020900481019282601f1061186657805160ff1916838001178555611893565b82800160010185558215611893579182015b82811115611893578251825591602001919060010190611878565b506115829291505b6106ad91905b8082111561158257600081556001016118a156006d696e7465720000000000000000000000000000000000000000000000000000a165627a7a72305820e467a75ebb6ca4e63c384fdb5b4f5542afbcd61c45cd82944281c53f359f4f4b0029",
  "source": "pragma solidity ^0.4.23;\n\nimport \"openzeppelin-solidity/contracts/token/ERC721/MintableERC721Token.sol\";\nimport \"openzeppelin-solidity/contracts/token/ERC721/DefaultTokenURI.sol\";\n\n\ncontract ClaimableToken is DefaultTokenURI, MintableERC721Token {\n\n  constructor(string _name, string _symbol, string _tokenURI)\n    ERC721Token(_name, _symbol)\n    DefaultTokenURI(_tokenURI)\n    public\n  {\n\n  }\n}\n",
  "sourcePath": "/Users/matt/Projects/crypto/XLNT/kata/kata-token/contracts/ClaimableToken.sol",
  "compiler": {
    "name": "solc",
    "version": "0.4.23+commit.124ca40d.Emscripten.clang"
  },
  "schemaVersion": "2.0.0",
  "updatedAt": "2018-05-18T01:43:13.877Z"
}