{
  "contractName": "ERC721Minter",
  "abi": [
    {
      "constant": true,
      "inputs": [
        {
          "name": "addr",
          "type": "address"
        },
        {
          "name": "roleName",
          "type": "string"
        }
      ],
      "name": "checkRole",
      "outputs": [],
      "payable": false,
      "stateMutability": "view",
      "type": "function"
    },
    {
      "constant": false,
      "inputs": [
        {
          "name": "_bouncer",
          "type": "address"
        }
      ],
      "name": "removeBouncer",
      "outputs": [],
      "payable": false,
      "stateMutability": "nonpayable",
      "type": "function"
    },
    {
      "constant": false,
      "inputs": [
        {
          "name": "_owner",
          "type": "address"
        }
      ],
      "name": "removeOwner",
      "outputs": [],
      "payable": false,
      "stateMutability": "nonpayable",
      "type": "function"
    },
    {
      "constant": true,
      "inputs": [
        {
          "name": "addr",
          "type": "address"
        },
        {
          "name": "roleName",
          "type": "string"
        }
      ],
      "name": "hasRole",
      "outputs": [
        {
          "name": "",
          "type": "bool"
        }
      ],
      "payable": false,
      "stateMutability": "view",
      "type": "function"
    },
    {
      "constant": false,
      "inputs": [
        {
          "name": "_owner",
          "type": "address"
        }
      ],
      "name": "addOwner",
      "outputs": [],
      "payable": false,
      "stateMutability": "nonpayable",
      "type": "function"
    },
    {
      "constant": false,
      "inputs": [
        {
          "name": "_bouncer",
          "type": "address"
        }
      ],
      "name": "addBouncer",
      "outputs": [],
      "payable": false,
      "stateMutability": "nonpayable",
      "type": "function"
    },
    {
      "constant": true,
      "inputs": [],
      "name": "ROLE_OWNER",
      "outputs": [
        {
          "name": "",
          "type": "string"
        }
      ],
      "payable": false,
      "stateMutability": "view",
      "type": "function"
    },
    {
      "constant": true,
      "inputs": [],
      "name": "ROLE_BOUNCER",
      "outputs": [
        {
          "name": "",
          "type": "string"
        }
      ],
      "payable": false,
      "stateMutability": "view",
      "type": "function"
    },
    {
      "constant": true,
      "inputs": [],
      "name": "token",
      "outputs": [
        {
          "name": "",
          "type": "address"
        }
      ],
      "payable": false,
      "stateMutability": "view",
      "type": "function"
    },
    {
      "inputs": [
        {
          "name": "_token",
          "type": "address"
        }
      ],
      "payable": false,
      "stateMutability": "nonpayable",
      "type": "constructor"
    },
    {
      "anonymous": false,
      "inputs": [
        {
          "indexed": false,
          "name": "addr",
          "type": "address"
        },
        {
          "indexed": false,
          "name": "roleName",
          "type": "string"
        }
      ],
      "name": "RoleAdded",
      "type": "event"
    },
    {
      "anonymous": false,
      "inputs": [
        {
          "indexed": false,
          "name": "addr",
          "type": "address"
        },
        {
          "indexed": false,
          "name": "roleName",
          "type": "string"
        }
      ],
      "name": "RoleRemoved",
      "type": "event"
    },
    {
      "constant": false,
      "inputs": [
        {
          "name": "_sig",
          "type": "bytes"
        }
      ],
      "name": "mint",
      "outputs": [
        {
          "name": "",
          "type": "uint256"
        }
      ],
      "payable": false,
      "stateMutability": "nonpayable",
      "type": "function"
    }
  ],
  "bytecode": "0x608060405234801561001057600080fd5b50604051602080610d288339810160408181529151828201909252600581527f6f776e6572000000000000000000000000000000000000000000000000000000602082015261006990339064010000000061008e810204565b60018054600160a060020a031916600160a060020a03929092169190911790556101e1565b610105826000836040518082805190602001908083835b602083106100c45780518252601f1990920191602091820191016100a5565b51815160209384036101000a60001901801990921691161790529201948552506040519384900301909220929150506401000000006101bc81026109611704565b7fbfec83d64eaa953f2708271a023ab9ee82057f8f3578d548c1a4ba0b5b70048982826040518083600160a060020a0316600160a060020a0316815260200180602001828103825283818151815260200191508051906020019080838360005b8381101561017d578181015183820152602001610165565b50505050905090810190601f1680156101aa5780820380516001836020036101000a031916815260200191505b50935050505060405180910390a15050565b600160a060020a0316600090815260209190915260409020805460ff19166001179055565b610b38806101f06000396000f3006080604052600436106100a35763ffffffff7c01000000000000000000000000000000000000000000000000000000006000350416630988ca8c81146100a85780631479290e14610111578063173825d914610132578063217fe6c6146101535780637065cb48146101ce5780637ba0e2e7146101ef578063888764c81461025a5780638ad682af1461027b578063d466ab6b14610305578063fc0c546a1461031a575b600080fd5b3480156100b457600080fd5b5060408051602060046024803582810135601f810185900485028601850190965285855261010f958335600160a060020a031695369560449491939091019190819084018382808284375094975061034b9650505050505050565b005b34801561011d57600080fd5b5061010f600160a060020a03600435166103b9565b34801561013e57600080fd5b5061010f600160a060020a0360043516610428565b34801561015f57600080fd5b5060408051602060046024803582810135601f81018590048502860185019096528585526101ba958335600160a060020a031695369560449491939091019190819084018382808284375094975061047c9650505050505050565b604080519115158252519081900360200190f35b3480156101da57600080fd5b5061010f600160a060020a03600435166104ef565b3480156101fb57600080fd5b506040805160206004803580820135601f81018490048402850184019095528484526102489436949293602493928401919081908401838280828437509497506105439650505050505050565b60408051918252519081900360200190f35b34801561026657600080fd5b5061010f600160a060020a0360043516610606565b34801561028757600080fd5b50610290610672565b6040805160208082528351818301528351919283929083019185019080838360005b838110156102ca5781810151838201526020016102b2565b50505050905090810190601f1680156102f75780820380516001836020036101000a031916815260200191505b509250505060405180910390f35b34801561031157600080fd5b50610290610694565b34801561032657600080fd5b5061032f6106b9565b60408051600160a060020a039092168252519081900360200190f35b6103b5826000836040518082805190602001908083835b602083106103815780518252601f199092019160209182019101610362565b51815160209384036101000a60001901801990921691161790529201948552506040519384900301909220929150506106c8565b5050565b6103e33360408051908101604052806005815260200160d960020a6437bbb732b90281525061034b565b600160a060020a03811615156103f857600080fd5b61042581604080519081016040528060078152602001600080516020610aed8339815191528152506106dd565b50565b6104523360408051908101604052806005815260200160d960020a6437bbb732b90281525061034b565b6104258160408051908101604052806005815260200160d960020a6437bbb732b9028152506106dd565b60006104e8836000846040518082805190602001908083835b602083106104b45780518252601f199092019160209182019101610495565b51815160209384036101000a60001901801990921691161790529201948552506040519384900301909220929150506107fe565b9392505050565b6105193360408051908101604052806005815260200160d960020a6437bbb732b90281525061034b565b6104258160408051908101604052806005815260200160d960020a6437bbb732b90281525061081d565b60008161055033826108fe565b151561055b57600080fd5b600154604080517fd0def521000000000000000000000000000000000000000000000000000000008152600160a060020a03338116600483015260248201839052600060448301819052925193169263d0def52192608480840193602093929083900390910190829087803b1580156105d357600080fd5b505af11580156105e7573d6000803e3d6000fd5b505050506040513d60208110156105fd57600080fd5b50519392505050565b6106303360408051908101604052806005815260200160d960020a6437bbb732b90281525061034b565b600160a060020a038116151561064557600080fd5b61042581604080519081016040528060078152602001600080516020610aed83398151915281525061081d565b604080518082019091526005815260d960020a6437bbb732b902602082015281565b6040805180820190915260078152600080516020610aed833981519152602082015281565b600154600160a060020a031681565b6106d282826107fe565b15156103b557600080fd5b610747826000836040518082805190602001908083835b602083106107135780518252601f1990920191602091820191016106f4565b51815160209384036101000a600019018019909216911617905292019485525060405193849003019092209291505061093f565b7fd211483f91fc6eff862467f8de606587a30c8fc9981056f051b897a418df803a82826040518083600160a060020a0316600160a060020a0316815260200180602001828103825283818151815260200191508051906020019080838360005b838110156107bf5781810151838201526020016107a7565b50505050905090810190601f1680156107ec5780820380516001836020036101000a031916815260200191505b50935050505060405180910390a15050565b600160a060020a03166000908152602091909152604090205460ff1690565b610887826000836040518082805190602001908083835b602083106108535780518252601f199092019160209182019101610834565b51815160209384036101000a6000190180199092169116179052920194855250604051938490030190922092915050610961565b7fbfec83d64eaa953f2708271a023ab9ee82057f8f3578d548c1a4ba0b5b70048982826040518083600160a060020a0316600160a060020a031681526020018060200182810382528381815181526020019150805190602001908083836000838110156107bf5781810151838201526020016107a7565b604080516c01000000000000000000000000600160a060020a0330811682028352851602601482015290519081900360280190206000906104e89083610986565b600160a060020a0316600090815260209190915260409020805460ff19169055565b600160a060020a0316600090815260209190915260409020805460ff19166001179055565b6000806109a283610996866109d9565b9063ffffffff610a1716565b90506109d181604080519081016040528060078152602001600080516020610aed83398151915281525061047c565b949350505050565b604080517f19457468657265756d205369676e6564204d6573736167653a0a3332000000008152601c8101839052905190819003603c019020919050565b60008060008084516041141515610a315760009350610ae3565b50505060208201516040830151606084015160001a601b60ff82161015610a5657601b015b8060ff16601b14158015610a6e57508060ff16601c14155b15610a7c5760009350610ae3565b60408051600080825260208083018085528a905260ff8516838501526060830187905260808301869052925160019360a0808501949193601f19840193928390039091019190865af1158015610ad6573d6000803e3d6000fd5b5050506020604051035193505b505050929150505600626f756e63657200000000000000000000000000000000000000000000000000a165627a7a72305820f6db0fc13b9b213f54ef208a33a8176c0de4098ac9a2bd3e28da25604eaf388b0029",
  "source": "pragma solidity ^0.4.23;\n\nimport \"../token/ERC721/MintableERC721Token.sol\";\nimport \"./SignatureBouncer.sol\";\n\n/**\n * @title ERC721Minter\n * @author Matt Condon (@shrugs)\n * @dev A SignatureBouncer that allows users to mint themselves a MintableERC721Token\n * @dev  iff they have a valid signature from a bouncer.\n * @dev 1. Deploy a MintableERC721Token and ERC721Minter.\n * @dev 2. Make ERC721Minter a minter of the token using `addMinter`.\n * @dev 3. Make your server a bouncer of ERC721Minter using `addBouncer`.\n * @dev 4. Generate a valid bouncer signature and submit it to the ERC721Minter using `mint`\n * @dev Override `mint()` to add tokenURI information.\n */\ncontract ERC721Minter is SignatureBouncer {\n  MintableERC721Token public token;\n\n  constructor(MintableERC721Token _token)\n    public\n  {\n    token = _token;\n  }\n\n  function mint(bytes _sig)\n    onlyValidSignature(_sig)\n    public\n    returns (uint256)\n  {\n    return token.mint(msg.sender, \"\");\n  }\n}\n",
  "sourcePath": "openzeppelin-solidity/contracts/access/ERC721Minter.sol",
  "compiler": {
    "name": "solc",
    "version": "0.4.23+commit.124ca40d.Emscripten.clang"
  },
  "schemaVersion": "2.0.0",
  "updatedAt": "2018-05-18T01:43:13.878Z"
}