{
  "contractName": "RBACOwnable",
  "abi": [
    {
      "constant": true,
      "inputs": [
        {
          "name": "addr",
          "type": "address"
        },
        {
          "name": "roleName",
          "type": "string"
        }
      ],
      "name": "checkRole",
      "outputs": [],
      "payable": false,
      "stateMutability": "view",
      "type": "function"
    },
    {
      "constant": true,
      "inputs": [
        {
          "name": "addr",
          "type": "address"
        },
        {
          "name": "roleName",
          "type": "string"
        }
      ],
      "name": "hasRole",
      "outputs": [
        {
          "name": "",
          "type": "bool"
        }
      ],
      "payable": false,
      "stateMutability": "view",
      "type": "function"
    },
    {
      "constant": true,
      "inputs": [],
      "name": "ROLE_OWNER",
      "outputs": [
        {
          "name": "",
          "type": "string"
        }
      ],
      "payable": false,
      "stateMutability": "view",
      "type": "function"
    },
    {
      "inputs": [],
      "payable": false,
      "stateMutability": "nonpayable",
      "type": "constructor"
    },
    {
      "anonymous": false,
      "inputs": [
        {
          "indexed": false,
          "name": "addr",
          "type": "address"
        },
        {
          "indexed": false,
          "name": "roleName",
          "type": "string"
        }
      ],
      "name": "RoleAdded",
      "type": "event"
    },
    {
      "anonymous": false,
      "inputs": [
        {
          "indexed": false,
          "name": "addr",
          "type": "address"
        },
        {
          "indexed": false,
          "name": "roleName",
          "type": "string"
        }
      ],
      "name": "RoleRemoved",
      "type": "event"
    },
    {
      "constant": false,
      "inputs": [
        {
          "name": "_owner",
          "type": "address"
        }
      ],
      "name": "addOwner",
      "outputs": [],
      "payable": false,
      "stateMutability": "nonpayable",
      "type": "function"
    },
    {
      "constant": false,
      "inputs": [
        {
          "name": "_owner",
          "type": "address"
        }
      ],
      "name": "removeOwner",
      "outputs": [],
      "payable": false,
      "stateMutability": "nonpayable",
      "type": "function"
    }
  ],
  "bytecode": "0x608060405234801561001057600080fd5b5061005f336040805190810160405280600581526020017f6f776e6572000000000000000000000000000000000000000000000000000000815250610064640100000000026401000000009004565b6101b7565b6100db826000836040518082805190602001908083835b6020831061009a5780518252601f19909201916020918201910161007b565b51815160209384036101000a600019018019909216911617905292019485525060405193849003019092209291505064010000000061019281026106271704565b7fbfec83d64eaa953f2708271a023ab9ee82057f8f3578d548c1a4ba0b5b70048982826040518083600160a060020a0316600160a060020a0316815260200180602001828103825283818151815260200191508051906020019080838360005b8381101561015357818101518382015260200161013b565b50505050905090810190601f1680156101805780820380516001836020036101000a031916815260200191505b50935050505060405180910390a15050565b600160a060020a0316600090815260209190915260409020805460ff19166001179055565b610678806101c66000396000f30060806040526004361061006c5763ffffffff7c01000000000000000000000000000000000000000000000000000000006000350416630988ca8c8114610071578063173825d9146100da578063217fe6c6146100fb5780637065cb48146101765780638ad682af14610197575b600080fd5b34801561007d57600080fd5b5060408051602060046024803582810135601f81018590048502860185019096528585526100d8958335600160a060020a03169536956044949193909101919081908401838280828437509497506102219650505050505050565b005b3480156100e657600080fd5b506100d8600160a060020a036004351661028f565b34801561010757600080fd5b5060408051602060046024803582810135601f8101859004850286018501909652858552610162958335600160a060020a03169536956044949193909101919081908401838280828437509497506102e69650505050505050565b604080519115158252519081900360200190f35b34801561018257600080fd5b506100d8600160a060020a0360043516610359565b3480156101a357600080fd5b506101ac6103ad565b6040805160208082528351818301528351919283929083019185019080838360005b838110156101e65781810151838201526020016101ce565b50505050905090810190601f1680156102135780820380516001836020036101000a031916815260200191505b509250505060405180910390f35b61028b826000836040518082805190602001908083835b602083106102575780518252601f199092019160209182019101610238565b51815160209384036101000a60001901801990921691161790529201948552506040519384900301909220929150506103cf565b5050565b6102b93360408051908101604052806005815260200160d960020a6437bbb732b902815250610221565b6102e38160408051908101604052806005815260200160d960020a6437bbb732b9028152506103e4565b50565b6000610352836000846040518082805190602001908083835b6020831061031e5780518252601f1990920191602091820191016102ff565b51815160209384036101000a6000190180199092169116179052920194855250604051938490030190922092915050610505565b9392505050565b6103833360408051908101604052806005815260200160d960020a6437bbb732b902815250610221565b6102e38160408051908101604052806005815260200160d960020a6437bbb732b902815250610524565b604080518082019091526005815260d960020a6437bbb732b902602082015281565b6103d98282610505565b151561028b57600080fd5b61044e826000836040518082805190602001908083835b6020831061041a5780518252601f1990920191602091820191016103fb565b51815160209384036101000a6000190180199092169116179052920194855250604051938490030190922092915050610605565b7fd211483f91fc6eff862467f8de606587a30c8fc9981056f051b897a418df803a82826040518083600160a060020a0316600160a060020a0316815260200180602001828103825283818151815260200191508051906020019080838360005b838110156104c65781810151838201526020016104ae565b50505050905090810190601f1680156104f35780820380516001836020036101000a031916815260200191505b50935050505060405180910390a15050565b600160a060020a03166000908152602091909152604090205460ff1690565b61058e826000836040518082805190602001908083835b6020831061055a5780518252601f19909201916020918201910161053b565b51815160209384036101000a6000190180199092169116179052920194855250604051938490030190922092915050610627565b7fbfec83d64eaa953f2708271a023ab9ee82057f8f3578d548c1a4ba0b5b70048982826040518083600160a060020a0316600160a060020a031681526020018060200182810382528381815181526020019150805190602001908083836000838110156104c65781810151838201526020016104ae565b600160a060020a0316600090815260209190915260409020805460ff19169055565b600160a060020a0316600090815260209190915260409020805460ff191660011790555600a165627a7a72305820d601be7e2ccd622dc37658fb5a6b55ce8f3a282dfeec7b73887df3c9f6831fb00029",
  "source": "pragma solidity ^0.4.23;\n\nimport \"./RBAC.sol\";\n\n\n/**\n * @title RBACOwnable\n * @author Matt Condon (@shrugs)\n * @dev Ownable logic using RBAC\n */\ncontract RBACOwnable is RBAC {\n  string public constant ROLE_OWNER = \"owner\";\n\n  constructor()\n    public\n  {\n    addRole(msg.sender, ROLE_OWNER);\n  }\n\n  modifier onlyOwner() {\n    checkRole(msg.sender, ROLE_OWNER);\n    _;\n  }\n\n  function addOwner(address _owner)\n    onlyOwner\n    public\n  {\n    addRole(_owner, ROLE_OWNER);\n  }\n\n  function removeOwner(address _owner)\n    onlyOwner\n    public\n  {\n    removeRole(_owner, ROLE_OWNER);\n  }\n}\n",
  "sourcePath": "openzeppelin-solidity/contracts/ownership/rbac/RBACOwnable.sol",
  "compiler": {
    "name": "solc",
    "version": "0.4.23+commit.124ca40d.Emscripten.clang"
  },
  "schemaVersion": "2.0.0",
  "updatedAt": "2018-05-18T01:43:13.880Z"
}