{
  "contractName": "RBACMintable",
  "abi": [
    {
      "constant": true,
      "inputs": [
        {
          "name": "addr",
          "type": "address"
        },
        {
          "name": "roleName",
          "type": "string"
        }
      ],
      "name": "checkRole",
      "outputs": [],
      "payable": false,
      "stateMutability": "view",
      "type": "function"
    },
    {
      "constant": true,
      "inputs": [
        {
          "name": "addr",
          "type": "address"
        },
        {
          "name": "roleName",
          "type": "string"
        }
      ],
      "name": "hasRole",
      "outputs": [
        {
          "name": "",
          "type": "bool"
        }
      ],
      "payable": false,
      "stateMutability": "view",
      "type": "function"
    },
    {
      "constant": true,
      "inputs": [],
      "name": "ROLE_MINTER",
      "outputs": [
        {
          "name": "",
          "type": "string"
        }
      ],
      "payable": false,
      "stateMutability": "view",
      "type": "function"
    },
    {
      "anonymous": false,
      "inputs": [
        {
          "indexed": false,
          "name": "addr",
          "type": "address"
        },
        {
          "indexed": false,
          "name": "roleName",
          "type": "string"
        }
      ],
      "name": "RoleAdded",
      "type": "event"
    },
    {
      "anonymous": false,
      "inputs": [
        {
          "indexed": false,
          "name": "addr",
          "type": "address"
        },
        {
          "indexed": false,
          "name": "roleName",
          "type": "string"
        }
      ],
      "name": "RoleRemoved",
      "type": "event"
    }
  ],
  "bytecode": "0x608060405234801561001057600080fd5b50610368806100206000396000f3006080604052600436106100565763ffffffff7c01000000000000000000000000000000000000000000000000000000006000350416630988ca8c811461005b578063217fe6c6146100d157806392afc33a14610159575b600080fd5b34801561006757600080fd5b5060408051602060046024803582810135601f81018590048502860185019096528585526100cf95833573ffffffffffffffffffffffffffffffffffffffff169536956044949193909101919081908401838280828437509497506101e39650505050505050565b005b3480156100dd57600080fd5b5060408051602060046024803582810135601f810185900485028601850190965285855261014595833573ffffffffffffffffffffffffffffffffffffffff169536956044949193909101919081908401838280828437509497506102519650505050505050565b604080519115158252519081900360200190f35b34801561016557600080fd5b5061016e6102c4565b6040805160208082528351818301528351919283929083019185019080838360005b838110156101a8578181015183820152602001610190565b50505050905090810190601f1680156101d55780820380516001836020036101000a031916815260200191505b509250505060405180910390f35b61024d826000836040518082805190602001908083835b602083106102195780518252601f1990920191602091820191016101fa565b51815160209384036101000a60001901801990921691161790529201948552506040519384900301909220929150506102fb565b5050565b60006102bd836000846040518082805190602001908083835b602083106102895780518252601f19909201916020918201910161026a565b51815160209384036101000a6000190180199092169116179052920194855250604051938490030190922092915050610310565b9392505050565b60408051808201909152600681527f6d696e7465720000000000000000000000000000000000000000000000000000602082015281565b6103058282610310565b151561024d57600080fd5b73ffffffffffffffffffffffffffffffffffffffff166000908152602091909152604090205460ff16905600a165627a7a72305820d155e1d14acafef93a0b2e3ef315672c37c5e723576ba7f3178e1f95bbb664da0029",
  "source": "pragma solidity ^0.4.23;\n\nimport \"./RBAC.sol\";\n\n\n/**\n * @title RBACMintable\n * @author Matt Condon (@shrugs)\n * @dev Mintable logic using RBAC\n */\ncontract RBACMintable is RBAC {\n  string public constant ROLE_MINTER = \"minter\";\n\n  modifier onlyMinter() {\n    checkRole(msg.sender, ROLE_MINTER);\n    _;\n  }\n}\n",
  "sourcePath": "openzeppelin-solidity/contracts/ownership/rbac/RBACMintable.sol",
  "compiler": {
    "name": "solc",
    "version": "0.4.23+commit.124ca40d.Emscripten.clang"
  },
  "schemaVersion": "2.0.0",
  "updatedAt": "2018-05-18T01:43:13.880Z"
}