{
  "contractName": "SignatureBouncer",
  "abi": [
    {
      "constant": true,
      "inputs": [
        {
          "name": "addr",
          "type": "address"
        },
        {
          "name": "roleName",
          "type": "string"
        }
      ],
      "name": "checkRole",
      "outputs": [],
      "payable": false,
      "stateMutability": "view",
      "type": "function"
    },
    {
      "constant": false,
      "inputs": [
        {
          "name": "_owner",
          "type": "address"
        }
      ],
      "name": "removeOwner",
      "outputs": [],
      "payable": false,
      "stateMutability": "nonpayable",
      "type": "function"
    },
    {
      "constant": true,
      "inputs": [
        {
          "name": "addr",
          "type": "address"
        },
        {
          "name": "roleName",
          "type": "string"
        }
      ],
      "name": "hasRole",
      "outputs": [
        {
          "name": "",
          "type": "bool"
        }
      ],
      "payable": false,
      "stateMutability": "view",
      "type": "function"
    },
    {
      "constant": false,
      "inputs": [
        {
          "name": "_owner",
          "type": "address"
        }
      ],
      "name": "addOwner",
      "outputs": [],
      "payable": false,
      "stateMutability": "nonpayable",
      "type": "function"
    },
    {
      "constant": true,
      "inputs": [],
      "name": "ROLE_OWNER",
      "outputs": [
        {
          "name": "",
          "type": "string"
        }
      ],
      "payable": false,
      "stateMutability": "view",
      "type": "function"
    },
    {
      "constant": true,
      "inputs": [],
      "name": "ROLE_BOUNCER",
      "outputs": [
        {
          "name": "",
          "type": "string"
        }
      ],
      "payable": false,
      "stateMutability": "view",
      "type": "function"
    },
    {
      "anonymous": false,
      "inputs": [
        {
          "indexed": false,
          "name": "addr",
          "type": "address"
        },
        {
          "indexed": false,
          "name": "roleName",
          "type": "string"
        }
      ],
      "name": "RoleAdded",
      "type": "event"
    },
    {
      "anonymous": false,
      "inputs": [
        {
          "indexed": false,
          "name": "addr",
          "type": "address"
        },
        {
          "indexed": false,
          "name": "roleName",
          "type": "string"
        }
      ],
      "name": "RoleRemoved",
      "type": "event"
    },
    {
      "constant": false,
      "inputs": [
        {
          "name": "_bouncer",
          "type": "address"
        }
      ],
      "name": "addBouncer",
      "outputs": [],
      "payable": false,
      "stateMutability": "nonpayable",
      "type": "function"
    },
    {
      "constant": false,
      "inputs": [
        {
          "name": "_bouncer",
          "type": "address"
        }
      ],
      "name": "removeBouncer",
      "outputs": [],
      "payable": false,
      "stateMutability": "nonpayable",
      "type": "function"
    }
  ],
  "bytecode": "0x60c0604052600560809081527f6f776e657200000000000000000000000000000000000000000000000000000060a052610043903390640100000000610048810204565b61019b565b6100bf826000836040518082805190602001908083835b6020831061007e5780518252601f19909201916020918201910161005f565b51815160209384036101000a600019018019909216911617905292019485525060405193849003019092209291505064010000000061017681026107d21704565b7fbfec83d64eaa953f2708271a023ab9ee82057f8f3578d548c1a4ba0b5b70048982826040518083600160a060020a0316600160a060020a0316815260200180602001828103825283818151815260200191508051906020019080838360005b8381101561013757818101518382015260200161011f565b50505050905090810190601f1680156101645780820380516001836020036101000a031916815260200191505b50935050505060405180910390a15050565b600160a060020a0316600090815260209190915260409020805460ff19166001179055565b610823806101aa6000396000f30060806040526004361061008d5763ffffffff7c01000000000000000000000000000000000000000000000000000000006000350416630988ca8c81146100925780631479290e146100fb578063173825d91461011c578063217fe6c61461013d5780637065cb48146101b8578063888764c8146101d95780638ad682af146101fa578063d466ab6b14610284575b600080fd5b34801561009e57600080fd5b5060408051602060046024803582810135601f81018590048502860185019096528585526100f9958335600160a060020a03169536956044949193909101919081908401838280828437509497506102999650505050505050565b005b34801561010757600080fd5b506100f9600160a060020a0360043516610307565b34801561012857600080fd5b506100f9600160a060020a0360043516610388565b34801561014957600080fd5b5060408051602060046024803582810135601f81018590048502860185019096528585526101a4958335600160a060020a03169536956044949193909101919081908401838280828437509497506103dc9650505050505050565b604080519115158252519081900360200190f35b3480156101c457600080fd5b506100f9600160a060020a036004351661044f565b3480156101e557600080fd5b506100f9600160a060020a03600435166104a3565b34801561020657600080fd5b5061020f610521565b6040805160208082528351818301528351919283929083019185019080838360005b83811015610249578181015183820152602001610231565b50505050905090810190601f1680156102765780820380516001836020036101000a031916815260200191505b509250505060405180910390f35b34801561029057600080fd5b5061020f610543565b610303826000836040518082805190602001908083835b602083106102cf5780518252601f1990920191602091820191016102b0565b51815160209384036101000a600019018019909216911617905292019485525060405193849003019092209291505061057a565b5050565b6103313360408051908101604052806005815260200160d960020a6437bbb732b902815250610299565b600160a060020a038116151561034657600080fd5b610385816040805190810160405280600781526020017f626f756e6365720000000000000000000000000000000000000000000000000081525061058f565b50565b6103b23360408051908101604052806005815260200160d960020a6437bbb732b902815250610299565b6103858160408051908101604052806005815260200160d960020a6437bbb732b90281525061058f565b6000610448836000846040518082805190602001908083835b602083106104145780518252601f1990920191602091820191016103f5565b51815160209384036101000a60001901801990921691161790529201948552506040519384900301909220929150506106b0565b9392505050565b6104793360408051908101604052806005815260200160d960020a6437bbb732b902815250610299565b6103858160408051908101604052806005815260200160d960020a6437bbb732b9028152506106cf565b6104cd3360408051908101604052806005815260200160d960020a6437bbb732b902815250610299565b600160a060020a03811615156104e257600080fd5b610385816040805190810160405280600781526020017f626f756e636572000000000000000000000000000000000000000000000000008152506106cf565b604080518082019091526005815260d960020a6437bbb732b902602082015281565b60408051808201909152600781527f626f756e63657200000000000000000000000000000000000000000000000000602082015281565b61058482826106b0565b151561030357600080fd5b6105f9826000836040518082805190602001908083835b602083106105c55780518252601f1990920191602091820191016105a6565b51815160209384036101000a60001901801990921691161790529201948552506040519384900301909220929150506107b0565b7fd211483f91fc6eff862467f8de606587a30c8fc9981056f051b897a418df803a82826040518083600160a060020a0316600160a060020a0316815260200180602001828103825283818151815260200191508051906020019080838360005b83811015610671578181015183820152602001610659565b50505050905090810190601f16801561069e5780820380516001836020036101000a031916815260200191505b50935050505060405180910390a15050565b600160a060020a03166000908152602091909152604090205460ff1690565b610739826000836040518082805190602001908083835b602083106107055780518252601f1990920191602091820191016106e6565b51815160209384036101000a60001901801990921691161790529201948552506040519384900301909220929150506107d2565b7fbfec83d64eaa953f2708271a023ab9ee82057f8f3578d548c1a4ba0b5b70048982826040518083600160a060020a0316600160a060020a03168152602001806020018281038252838181518152602001915080519060200190808383600083811015610671578181015183820152602001610659565b600160a060020a0316600090815260209190915260409020805460ff19169055565b600160a060020a0316600090815260209190915260409020805460ff191660011790555600a165627a7a7230582060d7a0c98040acc0fe60500a3d156c6f959d5b1b17b778090fd64253421909d50029",
  "source": "pragma solidity ^0.4.23;\n\nimport \"../ownership/rbac/RBACOwnable.sol\";\nimport \"../ownership/rbac/RBAC.sol\";\nimport \"../ECRecovery.sol\";\n\n/**\n * @title SignatureBouncer\n * @author PhABC and Shrugs\n * @dev Bouncer allows users to submit a signature as a permission to do an action.\n * @dev If the signature is from one of the authorized bouncer addresses, the signature\n * @dev is valid. The owner of the contract adds/removes bouncers.\n * @dev Bouncer addresses can be individual servers signing grants or different\n * @dev users within a decentralized club that have permission to invite other members.\n * @dev\n * @dev This technique is useful for whitelists and airdrops; instead of putting all\n * @dev valid addresses on-chain, simply sign a grant of the form\n * @dev keccak256(`:contractAddress` + `:granteeAddress`) using a valid bouncer address.\n * @dev Then restrict access to your crowdsale/whitelist/airdrop using the\n * @dev `onlyValidSignature` modifier (or implement your own using isValidSignature).\n * @dev\n * @dev See the tests Bouncer.test.js for specific usage examples.\n */\ncontract SignatureBouncer is RBACOwnable {\n  using ECRecovery for bytes32;\n\n  string public constant ROLE_BOUNCER = \"bouncer\";\n\n  /**\n   * @dev requires that a valid signature of a bouncer was provided\n   */\n  modifier onlyValidSignature(bytes _sig)\n  {\n    require(isValidSignature(msg.sender, _sig));\n    _;\n  }\n\n  /**\n   * @dev allows the owner to add additional bouncer addresses\n   */\n  function addBouncer(address _bouncer)\n    onlyOwner\n    public\n  {\n    require(_bouncer != address(0));\n    addRole(_bouncer, ROLE_BOUNCER);\n  }\n\n  /**\n   * @dev allows the owner to remove bouncer addresses\n   */\n  function removeBouncer(address _bouncer)\n    onlyOwner\n    public\n  {\n    require(_bouncer != address(0));\n    removeRole(_bouncer, ROLE_BOUNCER);\n  }\n\n  /**\n   * @dev is the signature of `this + sender` from a bouncer?\n   * @return bool\n   */\n  function isValidSignature(address _address, bytes _sig)\n    internal\n    view\n    returns (bool)\n  {\n    return isValidDataHash(\n      keccak256(address(this), _address),\n      _sig\n    );\n  }\n\n  /**\n   * @dev internal function to convert a hash to an eth signed message\n   * @dev and then recover the signature and check it against the bouncer role\n   * @return bool\n   */\n  function isValidDataHash(bytes32 hash, bytes _sig)\n    internal\n    view\n    returns (bool)\n  {\n    address signer = hash\n      .toEthSignedMessageHash()\n      .recover(_sig);\n    return hasRole(signer, ROLE_BOUNCER);\n  }\n}\n",
  "sourcePath": "openzeppelin-solidity/contracts/access/SignatureBouncer.sol",
  "compiler": {
    "name": "solc",
    "version": "0.4.23+commit.124ca40d.Emscripten.clang"
  },
  "schemaVersion": "2.0.0",
  "updatedAt": "2018-05-18T01:43:13.878Z"
}